{
    "contractName": "Donation",
    "abi": [
        {
            "inputs": [],
            "stateMutability": "nonpayable",
            "type": "constructor"
        },
        {
            "anonymous": false,
            "inputs": [
                {
                    "indexed": true,
                    "internalType": "address",
                    "name": "donor",
                    "type": "address"
                },
                {
                    "indexed": false,
                    "internalType": "uint256",
                    "name": "amount",
                    "type": "uint256"
                }
            ],
            "name": "Donated",
            "type": "event"
        },
        {
            "anonymous": false,
            "inputs": [
                {
                    "indexed": true,
                    "internalType": "address",
                    "name": "by",
                    "type": "address"
                },
                {
                    "indexed": false,
                    "internalType": "uint256",
                    "name": "amount",
                    "type": "uint256"
                }
            ],
            "name": "Withdrawn",
            "type": "event"
        },
        {
            "inputs": [],
            "name": "owner",
            "outputs": [
                {
                    "internalType": "address",
                    "name": "",
                    "type": "address"
                }
            ],
            "stateMutability": "view",
            "type": "function",
            "constant": true
        },
        {
            "inputs": [],
            "name": "totalDonated",
            "outputs": [
                {
                    "internalType": "uint256",
                    "name": "",
                    "type": "uint256"
                }
            ],
            "stateMutability": "view",
            "type": "function",
            "constant": true
        },
        {
            "inputs": [],
            "name": "donate",
            "outputs": [],
            "stateMutability": "payable",
            "type": "function",
            "payable": true
        },
        {
            "inputs": [],
            "name": "withdraw",
            "outputs": [],
            "stateMutability": "nonpayable",
            "type": "function"
        },
        {
            "inputs": [],
            "name": "getBalance",
            "outputs": [
                {
                    "internalType": "uint256",
                    "name": "",
                    "type": "uint256"
                }
            ],
            "stateMutability": "view",
            "type": "function",
            "constant": true
        }
    ],
    "bytecode": "0x608060405234801561001057600080fd5b50336000806101000a81548173ffffffffffffffffffffffffffffffffffffffff021916908373ffffffffffffffffffffffffffffffffffffffff1602179055506105da806100606000396000f3fe6080604052600436106100495760003560e01c8062b370441461004e57806312065fe0146100795780633ccfd60b146100a45780638da5cb5b146100bb578063ed88c68e146100e6575b600080fd5b34801561005a57600080fd5b506100636100f0565b6040516100709190610375565b60405180910390f35b34801561008557600080fd5b5061008e6100f6565b60405161009b9190610375565b60405180910390f35b3480156100b057600080fd5b506100b96100fe565b005b3480156100c757600080fd5b506100d061028c565b6040516100dd91906103d1565b60405180910390f35b6100ee6102b0565b005b60015481565b600047905090565b60008054906101000a900473ffffffffffffffffffffffffffffffffffffffff1673ffffffffffffffffffffffffffffffffffffffff163373ffffffffffffffffffffffffffffffffffffffff161461018c576040517f08c379a000000000000000000000000000000000000000000000000000000000815260040161018390610449565b60405180910390fd5b6000479050600081116101d4576040517f08c379a00000000000000000000000000000000000000000000000000000000081526004016101cb906104b5565b60405180910390fd5b60008054906101000a900473ffffffffffffffffffffffffffffffffffffffff1673ffffffffffffffffffffffffffffffffffffffff166108fc829081150290604051600060405180830381858888f1935050505015801561023a573d6000803e3d6000fd5b503373ffffffffffffffffffffffffffffffffffffffff167f7084f5476618d8e60b11ef0d7d3f06914655adb8793e28ff7f018d4c76d505d5826040516102819190610375565b60405180910390a250565b60008054906101000a900473ffffffffffffffffffffffffffffffffffffffff1681565b600034116102f3576040517f08c379a00000000000000000000000000000000000000000000000000000000081526004016102ea90610521565b60405180910390fd5b34600160008282546103059190610570565b925050819055503373ffffffffffffffffffffffffffffffffffffffff167f2a01595cddf097c90216094025db714da3f4e5bd8877b56ba86a24ecead8e543346040516103529190610375565b60405180910390a2565b6000819050919050565b61036f8161035c565b82525050565b600060208201905061038a6000830184610366565b92915050565b600073ffffffffffffffffffffffffffffffffffffffff82169050919050565b60006103bb82610390565b9050919050565b6103cb816103b0565b82525050565b60006020820190506103e660008301846103c2565b92915050565b600082825260208201905092915050565b7f4e6f7420746865206f776e657200000000000000000000000000000000000000600082015250565b6000610433600d836103ec565b915061043e826103fd565b602082019050919050565b6000602082019050818103600083015261046281610426565b9050919050565b7f4e6f2062616c616e636500000000000000000000000000000000000000000000600082015250565b600061049f600a836103ec565b91506104aa82610469565b602082019050919050565b600060208201905081810360008301526104ce81610492565b9050919050565b7f4d7573742073656e642045544800000000000000000000000000000000000000600082015250565b600061050b600d836103ec565b9150610516826104d5565b602082019050919050565b6000602082019050818103600083015261053a816104fe565b9050919050565b7f4e487b7100000000000000000000000000000000000000000000000000000000600052601160045260246000fd5b600061057b8261035c565b91506105868361035c565b925082820190508082111561059e5761059d610541565b5b9291505056fea26469706673582212207cb28fa16cc1686803881d0805e6a5cec18607b57ceaa32880a83e1444fec34e64736f6c63430008130033",
    "immutableReferences": {},
    "source": "// SPDX-License-Identifier: MIT\npragma solidity ^0.8.19;\n\ncontract Donation {\n    address public owner;\n    uint256 public totalDonated;\n\n    constructor() {\n        owner = msg.sender;\n    }\n\n    event Donated(address indexed donor, uint256 amount);\n    event Withdrawn(address indexed by, uint256 amount);\n\n    function donate() external payable {\n        require(msg.value > 0, \"Must send ETH\");\n        totalDonated += msg.value;\n        emit Donated(msg.sender, msg.value);\n    }\n\n    function withdraw() external {\n        require(msg.sender == owner, \"Not the owner\");\n        uint256 amount = address(this).balance;\n        require(amount > 0, \"No balance\");\n        payable(owner).transfer(amount);\n        emit Withdrawn(msg.sender, amount);\n    }\n\n    function getBalance() external view returns (uint256) {\n        return address(this).balance;\n    }\n}",
    "sourcePath": "/Users/kushagraagarwal/Documents/Study_Material/Blockchain/Blockchain_Lab/Donation_App/donation-dapp-truffle/contracts/Donation.sol",
    "compiler": {
        "name": "solc",
        "version": "0.8.19+commit.7dd6d404.Emscripten.clang"
    },
    "schemaVersion": "3.4.16",
    "updatedAt": "2025-04-04T07:24:11.776Z",
    "networkType": "ethereum",
    "devdoc": {
        "kind": "dev",
        "methods": {},
        "version": 1
    },
    "userdoc": {
        "kind": "user",
        "methods": {},
        "version": 1
    }
}